:020000040800F2
:1000000000500020311C00086D0800086F0800082F
:100010007108000873080008750800080000000057
:100020000000000000000000000000007708000849
:1000300079080008000000007B0800087D0800081F
:10004000791C0008791C0008791C0008791C00083C
:10005000791C0008791C0008791C0008791C00082C
:10006000791C0008791C0008791C0008791C00081C
:10007000791C0008791C0008791C0008791C00080C
:10008000791C0008791C0008791C0008791C0008FC
:10009000791C0008791C0008791C0008791C0008EC
:1000A000791C0008791C0008791C0008791C0008DC
:1000B000791C0008791C0008791C0008791C0008CC
:1000C000791C0008791C0008791C0008791C0008BC
:1000D000791C000885080008791C0008791C0008B4
:1000E000791C0008791C0008791C00080000000039
:1000F0000000000000000000000000000000000000
:0C01000000000000000000005FF808F1A3
:10010C000348044B834202D0034B03B1184770479A
:10011C000C0000200C0000200000000005480649DF
:10012C000B1AD90F01EBA301491002D0034B03B1F9
:10013C00184770470C0000200C0000200000000045
:10014C0010B5064C237843B9FFF7DAFF044B13B113
:10015C000448AFF300800123237010BD0C00002075
:10016C00000000007C1C000808B5044B1BB10449BE
:10017C000448AFF30080BDE80840CFE70000000062
:10018C00100000207C1C000870B50D4E0D4D761B28
:10019C00B61006D0002455F8043B01349847A6420B
:1001AC00F9D1094E094D01F063FD761BB61006D04E
:1001BC00002455F8043B01349847A642F9D170BD90
:1001CC00FC1E0008FC1E0008001F0008FC1E000896
:1001DC00830730B548D0541E002A3FD00346CAB21C
:1001EC0001E0013C3AD303F8012B9D07F9D1032C14
:1001FC002DD9CDB245EA05250F2C45EA054536D952
:10020C00A4F1100222F00F0C03F1200EE6444FEA89
:10021C00121C03F1100242E9045542E90255103256
:10022C007245F8D10CF1010214F00C0F03EB021221
:10023C0004F00F0C13D0ACF1040323F003030433CC
:10024C00134442F8045B9342FBD10CF003042CB131
:10025C00CAB21C4403F8012B9C42FBD130BD64464E
:10026C001346002CF4D1F9E703461446BFE71A46AF
:10027C00A446E0E772B6FEE700B591B02822002153
:10028C0006A8FFF7A5FF00230193029303930493A1
:10029C000593012206924FF4803307930A920222AF
:1002AC000D920E934FF4E0130F9306A800F02CFD63
:1002BC0080B90F23019302210291002303934FF481
:1002CC0080620492059301A800F05EFF20B911B082
:1002DC005DF804FBFFF7CEFFFFF7CCFF08B500F08D
:1002EC00C5FCFFF7C9FF00F019F800F069F800F041
:1002FC001BFA00F027F900F0B3F90023064A19465F
:10030C00184600F0DFF900F0E7F84FF4FA7000F04F
:10031C00D1FC00F0E1F8F8E7941C00082DE9F0415D
:10032C0088B000240494059406940794214B9A6990
:10033C0042F020029A619A6902F020020192019A1D
:10034C009A6942F004029A619A6902F004020292DC
:10035C00029A9A6942F008029A619B6903F00803B9
:10036C000393039BDFF8508022461021404601F096
:10037C00F9F8124D224640F60341284601F0F2F8F6
:10038C0010230493012705970694022607960DEB7C
:10039C000301404600F0D4FF40F603430493059755
:1003AC000694079604A9284600F0CAFF08B0BDE8D9
:1003BC00F08100BF0010024000080140000C014019
:1003CC0008B50E480E4B03604FF482734360002354
:1003DC008360C360036143614FF400728261182231
:1003EC00C2610362436283620A23C36200F0E0FAD3
:1003FC0000B908BDFFF73EFFFBE700BF2800002057
:10040C000030014010B586B000230293039304938F
:10041C0005930268164B9A4201D006B010BD03F545
:10042C0060439A6942F480529A619A6902F480524C
:10043C000092009A9A6942F004029A619B6903F057
:10044C0004030193019BA023029302230393032330
:10045C000593084C02A9204600F072FF402302933A
:10046C0000230393049302A9204600F069FFD4E70C
:10047C00003001400008014010B582B08DF8070033
:10048C00F1B101220221114801F06CF8104C00224C
:10049C001021204601F066F84FF6FF7301220DF192
:1004AC0007010C4800F0DFFA01221021204601F070
:1004BC0059F801220221054801F054F802B010BD90
:1004CC0000220221014801F04DF8DFE7000C014049
:1004DC00000801402800002038B500250DE0104B25
:1004EC0003EBC5130121185DFFF7C6FF0134E4B21D
:1004FC0014F0800FF3D00135EDB2072D0FD8A5F114
:10050C0050000021C0B2FFF7B7FF00210846FFF7EB
:10051C00B3FF00211020FFF7AFFF0024E8E738BD40
:10052C0080000020002306E0054A02EBC0120021E7
:10053C00D1540133DBB213F0800FF5D0704700BFFC
:10054C008000002010B5454C00220121204601F00E
:10055C0009F8642000F0AEFB01221146204601F0A0
:10056C0001F80021AE20FFF787FF00210846FFF7B6
:10057C0083FF00211020FFF77FFF00214020FFF7B1
:10058C007BFF00218120FFF777FF0021CF20FFF7B1
:10059C0073FF0021A120FFF76FFF0021C820FFF798
:1005AC006BFF0021A620FFF767FF0021A820FFF7B3
:1005BC0063FF00213F20FFF75FFF0021D320FFF7EF
:1005CC005BFF00210846FFF757FF0021D520FFF7FE
:1005DC0053FF00218020FFF74FFF0021D920FFF7A8
:1005EC004BFF0021F120FFF747FF0021DA20FFF736
:1005FC0043FF00211220FFF73FFF0021DB20FFF714
:10060C003BFF00214020FFF737FF00212020FFF7A0
:10061C0033FF00210220FFF72FFF00218D20FFF771
:10062C002BFF00211420FFF727FF0021A420FFF748
:10063C0023FF0021A620FFF71FFF002404E0204623
:10064C00FFF770FF0134E4B2072CF8D9FFF744FF31
:10065C000021AF20FFF710FF10BD00BF000C0140C0
:10066C0010B5002404E02046FFF75CFF0134E4B22F
:10067C00072CF8D9FFF730FF10BD00004FF0000C2D
:10068C00BCF1050F18DC10B5A2F1200301EB410EF3
:10069C000CEB4E0E03EB4303084C04EB430313F833
:1006AC000C40074B03EBC01303F80E400CF1010C8C
:1006BC00BCF1050FE8DD10BD704700BFA81C000899
:1006CC00800000202DE9F04707460D4690469A46DB
:1006DC0000260CE0072F21D8534699F80020294614
:1006EC003846FFF7CBFF0135EDB20136F6B208EB19
:1006FC00060918F806309BB1142DEBD90137FFB25F
:10070C000025E7E72046FFF70DFF0134E4B2072C84
:10071C00F8D9FFF7E1FE07F00707DDE70024F6E75D
:10072C00FFF7DAFEBDE8F08708B50D480D4B036006
:10073C004FF4E133436000238360C36003610C22F8
:10074C0042618361C36101F081F828B90122064935
:10075C00034801F04AFA08BDFFF78CFDF6E700BF2D
:10076C0084040020003801408004002030B587B09C
:10077C000023029303930493059302681B4B9A4244
:10078C0001D007B030BD03F558439A6942F480425A
:10079C009A619A6902F480420092009A9A6942F036
:1007AC0004029A619B6903F004030193019B4FF4CB
:1007BC000073029302230393032305930C4D02A9A8
:1007CC00284600F0BDFD4FF480630293002403948F
:1007DC00049402A9284600F0B3FD224621462520A8
:1007EC0000F046FF252000F07BFFCAE700380140EF
:1007FC000008014038B5164A11784B1CDBB2137057
:10080C00144A1278144842540A2A05D0012211497C
:10081C00124801F0EAF938BD013B0021C154012412
:10082C0004E02046FFF77EFE0134E4B2072CF8D931
:10083C00094D00232A4619460120FFF743FF044CBB
:10084C00227800212846FFF7C3FC00232370DDE744
:10085C00C805002080040020C80400208404002067
:10086C00FEE7FEE7FEE7FEE7FEE7704770477047DE
:10087C0008B500F00DFA08BD08B5024801F098F86B
:10088C0008BD00BF8404002082B00A4B9A6942F074
:10089C0001029A619A6902F001020092009ADA69E7
:1008AC0042F08052DA61DB6903F080530193019BC3
:1008BC0002B07047001002402DE9F04782B00546A7
:1008CC00884617461E4600F0EFF90A9B1B1A03EBED
:1008DC00060900F0E9F982462B4B1B68C3F3CB33B6
:1008EC0009FB03F301932B689C6838EA04030CBFE3
:1008FC004FF0010C4FF0000CBC4540D0B6F1FF3F5F
:10090C00F1D000F0D1F9A0EB0A0048450AD2B9F1B8
:10091C00000F07D0019A02B14A46019B013B01939B
:10092C009146E0E72A68536823F0E00353606B6854
:10093C00B3F5827F0BD0AB6AB3F5005F14D0012303
:10094C0085F85130002385F85030032018E0AB684F
:10095C00B3F5004F02D0B3F5806FECD12A68136861
:10096C0023F040031360E6E72A68136823F400536E
:10097C0013602A68136843F400531360DFE7002008
:10098C0002B0BDE8F08700BF0800002010B582B0AF
:10099C0004460B46009200228021FFF78DFF08B918
:1009AC0002B010BD636D43F0200363650320F7E7CD
:1009BC00002856D010B50446436A33B94368B3F5E2
:1009CC00827F05D00023C36102E0002303614361F1
:1009DC000023A36294F85130002B3CD0022384F8FE
:1009EC0051302268136823F040031360636803F4EA
:1009FC008273A26802F404421343E26802F40062B8
:100A0C001343226902F002021343626902F00102ED
:100A1C001343A26902F400721343E26902F0380234
:100A2C001343226A02F080021343A26A02F40052BA
:100A3C00216813430B60638B226803F0040353603B
:100A4C002268D36923F40063D3610020606501231D
:100A5C0084F8513010BD84F850302046FFF7D2FC9A
:100A6C00BCE7012070472DE9F04383B01D4690F898
:100A7C005030012B00F0D18004468846914601236A
:100A8C0080F8503000F010F9074694F85160F6B237
:100A9C00012E40F0AF80B8F1000F00F0AC80B9F13E
:100AAC00000F00F0A880032384F851300023636505
:100ABC00C4F83080A4F83490A4F83690A363A387CC
:100ACC00E38763642364A368B3F5004F1ED02368E7
:100ADC001A6812F0400F03D11A6842F040021A60F3
:100AEC00E368B3F5006F1CD0636813B1B9F1010F63
:100AFC0052D1226B236812781A73236B0133236350
:100B0C00E38E9BB2013B9BB2E38645E022681368FF
:100B1C0023F0400313602268136843F4804313608E
:100B2C00D5E7636813B1B9F1010F16D1226B2368B5
:100B3C001288DA60236B02332363E38E9BB2013B92
:100B4C009BB2E38609E000F0AFF8C01BA84202D3C9
:100B5C00B5F1FF3F59D1002D59D0E38E9BB2002B3C
:100B6C0033D023689A6812F0020FECD0226B1288F3
:100B7C00DA60236B02332363E38E9BB2013B9BB29F
:100B8C00E386EAE700F090F8C01BA84202D3B5F167
:100B9C00FF3F3ED1002D3ED0E38E9BB2ABB123681C
:100BAC009A6812F0020FEDD0226B12781A73236B35
:100BBC0001332363B4F836C01FFA8CFC0CF1FF3CF4
:100BCC001FFA8CFCA4F836C0E6E73A4629462046C4
:100BDC00FFF7DCFE08B120236365A36833B90193EA
:100BEC002368DA6801929B680193019B636D13B9CA
:100BFC00002600E00226012384F85130002384F8FB
:100C0C005030304603B0BDE8F0830326F3E70326EB
:100C1C00F1E70326EFE70326EDE70226F1E70000F4
:100C2C0010B504460E4B18784FF47A73B3FBF0F3FF
:100C3C000C4A1068B0FBF3F000F060FD68B90F2CA3
:100C4C0001D901200AE0002221464FF0FF3000F0CC
:100C5C000FFD054B1C60002000E0012010BD00BF03
:100C6C0000000020080000200400002008B5074AFE
:100C7C00136843F010031360032000F0E7FC0F200F
:100C8C00FFF7CEFFFFF700FE002008BD002002405A
:100C9C00034A1168034B1B780B441360704700BF69
:100CAC00CC05002000000020014B1868704700BFE5
:100CBC00CC05002038B50446FFF7F6FF0546B4F125
:100CCC00FF3F02D0044B1B781C44FFF7EDFF401B89
:100CDC00A042FAD338BD00BF0000002082B0084B00
:100CEC001B68084AA2FB03235B0A00FB03F3019376
:100CFC0000BF019B5A1E0192002BF9D102B0704724
:100D0C0008000020D34D6210002800F0F18170B56E
:100D1C0082B00446036813F0010F2CD0994B5B682A
:100D2C0003F00C03042B1DD0964B5B6803F00C03F3
:100D3C00082B12D06368B3F5803F41D0002B55D1FE
:100D4C0003F1804303F504331A6822F480321A60ED
:100D5C001A6822F480221A6037E08A4B5B6813F41D
:100D6C00803FE7D0874B1B6813F4003F03D06368C8
:100D7C00002B00F0BF81236813F0020F75D0814B5C
:100D8C005B6813F00C0F5FD07E4B5B6803F00C03B9
:100D9C00082B54D02369002B00F08A807A4B012257
:100DAC001A60FFF781FF0546764B1B6813F0020FA4
:100DBC0075D1FFF779FF401B0228F5D903209EE17E
:100DCC00704A136843F480331360636843B3FFF7CE
:100DDC006BFF05466B4B1B6813F4003FCBD1FFF741
:100DEC0063FF401B6428F5D9032088E1B3F5A02FDD
:100DFC0009D0644B1A6822F480321A601A6822F403
:100E0C0080221A60E1E703F18043A3F53C331A68B2
:100E1C0042F480221A601A6842F480321A60D4E7D5
:100E2C00FFF742FF0546574B1B6813F4003FA2D057
:100E3C00FFF73AFF401B6428F5D903205FE1514BC3
:100E4C005B6813F4803FA5D14E4B1B6813F0020F67
:100E5C0003D02369012B40F04F814A4A136823F0D9
:100E6C00F803616943EAC1031360236813F0080FA8
:100E7C0033D0A369002B5CD0434B0122C3F88024F0
:100E8C00FFF712FF05463F4B5B6A13F0020F21D1AF
:100E9C00FFF70AFF401B0228F5D903202FE1394A3E
:100EAC00136823F0F803616943EAC1031360DCE7BC
:100EBC00354B00221A60FFF7F7FE0546314B1B68D5
:100ECC0013F0020FD1D0FFF7EFFE401B0228F5D92B
:100EDC00032014E10120FFF701FF236813F0040F36
:100EEC0000F09680274BDB6913F0805F34D1254BE3
:100EFC00DA6942F08052DA61DB6903F080530193C6
:100F0C00019B0125214B1B6813F4807F26D0E368DD
:100F1C00012B3DD0002B53D103F1804303F5043357
:100F2C001A6A22F001021A621A6A22F004021A6288
:100F3C0033E0154B0022C3F88024FFF7B5FE0546BD
:100F4C00104B5B6A13F0020FC7D0FFF7ADFE401BCE
:100F5C000228F5D90320D2E00025D3E70B4A136809
:100F6C0043F480731360FFF79FFE0646074B1B6824
:100F7C0013F4807FCBD1FFF797FE801B6428F5D943
:100F8C000320BCE000100240000042420070004010
:100F9C005F4A136A43F001031362E36833B3FFF74C
:100FAC0083FE06465A4B1B6A13F0020F2FD1FFF734
:100FBC007BFE801B41F288339842F3D903209EE0DC
:100FCC00052B09D0524B1A6A22F001021A621A6AD6
:100FDC0022F004021A62E0E74D4B1A6A42F0040256
:100FEC001A621A6A42F001021A62D6E7FFF75CFE37
:100FFC000646474B1B6A13F0020F08D0FFF754FE4E
:10100C00801B41F288339842F3D9032077E0E5B98D
:10101C00E369002B72D03E4A526802F00C02082A97
:10102C0056D0022B17D03B4B00221A66FFF73CFE22
:10103C000446374B1B6813F0007F47D0FFF734FE94
:10104C00001B0228F5D9032059E0314AD36923F05B
:10105C008053D361DCE72F4B00221A66FFF724FE86
:10106C0005462B4B1B6813F0007F06D0FFF71CFEC8
:10107C00401B0228F5D9032041E0236AB3F5803FD9
:10108C001AD023494B6823F47413226A606A024312
:10109C0013434B601F4B01221A66FFF705FE0446F3
:1010AC001B4B1B6813F0007F0ED1FFF7FDFD001BDF
:1010BC000228F5D9032022E0154A536823F40033A3
:1010CC00A1680B435360DCE7002018E0002016E019
:1010DC00012B16D00E4B5B6803F48031226A9142CF
:1010EC0011D103F47013626A93420ED1002006E012
:1010FC0001207047012002E0012000E0002002B036
:10110C0070BD0120FBE70120F9E70120F7E700BFE4
:10111C00001002400000424286B0174B0FCB0DF17D
:10112C00180C0CE90F0040F20123ADF80430134BFE
:10113C005B6803F00C02082A02D0114806B0704715
:10114C00C3F3834218326A4412F8100C13F4803F34
:10115C000DD00A4B5B68C3F3404318336B4413F850
:10116C00143C074A02FB00F0B0FBF3F0E6E7054B3A
:10117C0003FB00F0E2E700BFD01E000800100240A5
:10118C0000127A0000093D00002800F0A08070B524
:10119C000D460446524B1B6803F007038B420BD2DF
:1011AC004F4A136823F007030B431360136803F0D3
:1011BC0007038B4240F08D80236813F0020F17D089
:1011CC0013F0040F04D0474A536843F4E0635360B0
:1011DC00236813F0080F04D0424A536843F4605359
:1011EC005360404A536823F0F003A1680B435360EB
:1011FC00236813F0010F31D06368012B20D0022B30
:10120C0025D0384A126812F0020F64D035494A686A
:10121C0022F0030213434B60FFF746FD0646314BA9
:10122C005B6803F00C036268B3EB820F16D0FFF718
:10123C003BFD801B41F288339842F0D9032045E0F6
:10124C00284A126812F4003FE0D101203EE0254A02
:10125C00126812F0007FD9D1012037E0204B1B68B7
:10126C0003F00703AB420AD91D4A136823F00703A6
:10127C002B431360136803F00703AB422DD1236893
:10128C0013F0040F06D0174A536823F4E063E168A7
:10129C000B435360236813F0080F07D0114A5368AF
:1012AC0023F46053216943EAC1035360FFF734FF11
:1012BC000C4B5B68C3F303130B4AD35CD8400B4B4A
:1012CC0018600B4B1868FFF7ABFC002070BD0120B9
:1012DC0070470120FAE70120F8E70120F6E700BF8C
:1012EC000020024000100240E41E0008080000200C
:1012FC0004000020014B1868704700BF0800002054
:10130C0008B5FFF7F7FF044B5B68C3F30223034AEE
:10131C00D35CD84008BD00BF00100240F41E00088A
:10132C0008B5FFF7E7FF044B5B68C3F3C223034A1E
:10133C00D35CD84008BD00BF00100240F41E00086A
:10134C0070B582B00024A446A6E0804DAA4210D00D
:10135C0007D97F4DAA420CD005F58035AA4208D09A
:10136C0013E0A5F58015AA4203D005F57025AA4215
:10137C0007D18A68002A58D0012A51D04361082429
:10138C0003E0A5F58015AA42F3D0BEF1FF0F4ED8AD
:10139C000646BEF1FF0F4CD84FEA8C0233680F257E
:1013AC00954023EA050304FA02F2134333604B68B9
:1013BC0013F0805F6ED0674B9A6942F001029A611C
:1013CC009B6903F001030193019B4FEA9C02951C5E
:1013DC00614B53F825600CF003039D000F23AB40C9
:1013EC0026EA03065D4B984229D003F580639842A8
:1013FC0000F08E8003F58063984200F08B8003F53B
:10140C008063984219D004231AE0CC68BDE7CC68FD
:10141C000434BAE7CC680834B7E7CC680C34B4E7CA
:10142C0003610824B1E70024AFE70424ADE7061DEF
:10143C00AFE7ACF108029200B0E7032300E0002311
:10144C00AB4033430232444D45F822304B6813F421
:10145C00803F61D0424A136843EA0E0313604B6825
:10146C0013F4003F5ED03E4A536843EA0E035360C8
:10147C004B6813F4801F5BD0394A936843EA0E0320
:10148C0093604B6813F4001F58D0354AD36843EA75
:10149C000E03D3600CF1010C0A6832FA0CF353D032
:1014AC00012303FA0CF302EA030E33EA0202F1D130
:1014BC004A68122A3FF649AF122A3FF666AF01A5D9
:1014CC0055F822F07F1300081714000821140008A7
:1014DC00331400089713000897130008971300089B
:1014EC009713000897130008971300089713000828
:1014FC009713000897130008971300089713000818
:10150C0097130008971300081B14000827140008F1
:10151C00012395E7022393E7114A136823EA0E038C
:10152C0013609CE70E4A536823EA0E0353609FE74F
:10153C000B4A936823EA0E039360A2E7084AD36828
:10154C0023EA0E03D360A5E702B070BD00002210A1
:10155C000000311000100240000001400008014062
:10156C00000401400AB10161704709040161704730
:10157C0090F82130022B06D004238363002380F8DB
:10158C002030012070470268136823F00E031360AB
:10159C000268136823F001031360036CC16B012212
:1015AC0002FA03F34B6080F82120002380F82030EE
:1015BC001846704708B590F82130022B03D004234D
:1015CC008363012008BD0268136823F00E031360C7
:1015DC000268136823F0010313600368194A9342ED
:1015EC0014D0143293421FD0143293421ED01432B2
:1015FC0093421ED0143293421ED01432934202D026
:10160C004FF0807203E04FF4801200E001220E4B89
:10161C005A60012380F82130002380F82030436B7E
:10162C006BB198470020CDE71022F0E74FF48072A1
:10163C00EDE74FF48052EAE74FF48032E7E7002001
:10164C00C0E700BF0800024000000240074AD36810
:10165C0023F4E0631B041B0C000200F4E060034362
:10166C0043F0BF6343F40033D360704700ED00E0F8
:10167C0000B5194BDB68C3F30223C3F1070CBCF1B3
:10168C00040F28BF4FF0040C03F1040EBEF1060F3B
:10169C0018D9033B4FF0FF3E0EFA0CFC21EA0C016B
:1016AC0099400EFA03F322EA0303194300280BDBDB
:1016BC000901C9B200F1604000F5614080F80013E7
:1016CC005DF804FB0023E5E700F00F000901C9B247
:1016DC00024B1954F4E700BF00ED00E014ED00E0FC
:1016EC00002807DB00F01F02400901239340024A47
:1016FC0042F82030704700BF00E100E00138B0F143
:10170C00807F0BD24FF0E0235861054AF02182F81C
:10171C0023100020986107221A617047012070473E
:10172C0000ED00E00268D36823F49073D360026884
:10173C00536923F001035361036B012B05D0202364
:10174C0080F83E300023036370470268D36823F0AF
:10175C001003D360F3E790F83D30DBB2212B01D0BE
:10176C00022070478368B3F5805F17D0036A5A1C58
:10177C0002621A7803685A60C38C9BB2013B9BB21D
:10178C00C3844BB90268D36823F08003D36002682A
:10179C00D36843F04003D360002070470369002BEB
:1017AC00E4D1036A1B880268C3F308035360036A1D
:1017BC0002330362E0E7000010B5044602681369C7
:1017CC0023F44053C1680B431361836802691343CC
:1017DC0042691A430168CB6823F4B05323F00C031D
:1017EC001343CB600268536923F4407381690B4344
:1017FC0053610268134B9A4220D0FFF781FD0246D9
:10180C0002EB820202EB820263689B00B2FBF3F2F2
:10181C000D48A0FB02314909642303FB11231B0172
:10182C003233A0FB03235B0903F0F00202EB01123D
:10183C0003F00F03216813448B6010BDFFF770FD9C
:10184C000246DDE7003801401F85EB5158B310B557
:10185C00044690F83D300BB3242384F83D302268C5
:10186C00D36823F40053D3602046FFF7A5FF22680A
:10187C00136923F4904313612268536923F02A03FC
:10188C0053612268D36843F40053D3600020206472
:10189C00202384F83D3084F83E3010BD80F83C3075
:1018AC00FEF764FFD8E701207047704708B5016860
:1018BC00CA6822F04002CA60202280F83D20FFF75F
:1018CC00F4FF002008BD704708B5406A0023C385AB
:1018DC00C384FFF7F8FF08BD704790F83E30DBB2C9
:1018EC00222B60D18368B3F5805F46D0826AB3F552
:1018FC00805F04D0002B4DD10369002B4AD10368C3
:10190C005B681370836A01338362C38D9BB2013BA6
:10191C009BB2C385002B48D100B583B00268D36855
:10192C0023F02003D3600268D36823F48073D36060
:10193C000268536923F001035361202380F83E3081
:10194C00036B012B2CD1002303630268D36823F0B3
:10195C001003D36003681A6812F0100F06D000222F
:10196C0001921A6801925B680193019B818DFFF7CC
:10197C00B3FF002003B05DF804FB0269002AB5D167
:10198C00826A03685B68C3F308031380836A0233BB
:10199C008362BAE703685B6803F07F031370B1E7F7
:1019AC00FEF728FFE5E70220704700207047000093
:1019BC0030B583B0044602681368D068516913F0DF
:1019CC000F0505D113F0200F02D010F0200F19D104
:1019DC002DB111F0010119D110F4907F16D1216BAA
:1019EC00012975D013F0800F03D010F0800F40F058
:1019FC00D78013F0400F03D010F0400F40F0D4808C
:101A0C0003B030BD2046FFF768FFF9E713F0010F74
:101A1C0006D010F4807F03D0226C42F001022264C5
:101A2C0013F0040F04D019B1226C42F002022264AC
:101A3C0013F0020F04D019B1226C42F0040222649C
:101A4C0013F0080F07D010F0200F00D119B1226C41
:101A5C0042F008022264226C002AD1D013F0200F2D
:101A6C0002D010F0200F21D123685B6903F04003F2
:101A7C00226C12F0080F00D123B32046FFF752FE60
:101A8C0023685A6912F0400F18D05A6922F04002AC
:101A9C005A61A36B73B1464A5A63A06BFFF78AFD78
:101AAC000028ADD0A06B436B9847A9E72046FFF701
:101ABC0014FFD9E72046FFF706FFA1E72046FFF702
:101ACC0002FF9DE72046FFF7FEFE0023236497E705
:101ADC0013F0100F86D010F0100F83D00023019359
:101AEC001368019353680193019B536913F0400FE2
:101AFC0032D0A16B0B685B689BB2002B80D0A08DA1
:101B0C0098427FF67DAFE3858B69202B08D1A18DA0
:101B1C00E38D9BB2C91A89B22046FFF7DDFE6FE751
:101B2C00D36823F48073D3602268536923F00103D4
:101B3C0053612268536923F040035361202384F8D6
:101B4C003E30002323632268D36823F01003D36054
:101B5C00A06BFFF70DFDDAE7A18DE38D9BB2C91ADF
:101B6C0089B2E38D9BB2002B3FF44AAF00293FF4BE
:101B7C0047AFD36823F49073D3602268536923F082
:101B8C0001035361202384F83E3000232363226831
:101B9C00D36823F01003D3602046FFF79DFE2FE798
:101BAC002046FFF7D8FD2BE72046FFF77FFE27E7FF
:101BBC00D5180008034681628285C285002018640E
:101BCC00222283F83E2083F83C001968CA6842F44C
:101BDC008072CA6019684A6942F001024A611A6847
:101BEC00D36843F02003D360704708B590F83E30BB
:101BFC00DBB2202B0DD171B17AB190F83C30012BB6
:101C0C000DD0012380F83C3000230363FFF7D2FF93
:101C1C0000E0022008BD0120FCE70120FAE70220C9
:101C2C00F8E770470C480D490D4A002302E0D458E0
:101C3C00C4500433C4188C42F9D30A4A0A4C00230A
:101C4C0001E013600432A242FBD3FFF7EAFFFEF778
:101C5C009BFAFEF743FB7047000000200C000020AD
:101C6C00041F00080C000020D0050020FEE7000037
:101C7C00F8B500BFF8BC08BC9E467047F8B500BF6D
:081C8C00F8BC08BC9E4670473D
:101C94007265766569766564206D657373616765E1
:101CA4003A0000000000000000000000002F0000C7
:101CB40000000700070000147F147F1400242A7F0B
:101CC4002A1200626408132300364955225000008A
:101CD4000503000000001C224100000041221C00FA
:101CE4000014083E08140008083E0808000000A07C
:101CF4006000000808080808000060600000002078
:101D040010080402003E5149453E0000427F400055
:101D1400004261514946002141454B3100181412DB
:101D24007F10002745454539003C4A4949300001A8
:101D34007109050300364949493600064949291EF7
:101D44000000363600000000563600000008142259
:101D54004100001414141414000041221408000259
:101D64000151090600324959513E007C1211127C7E
:101D7400007F49494936003E41414122007F4141AB
:101D8400221C007F49494941007F09090901003E9D
:101D94004149497A007F0808087F0000417F4100DB
:101DA400002040413F01007F08142241007F404051
:101DB4004040007F020C027F007F0408107F003E39
:101DC4004141413E007F09090906003E4151215E1F
:101DD400007F091929460046494949310001017F1C
:101DE4000101003F4040403F001F2040201F003FB2
:101DF4004038403F00631408146300070870080764
:101E040000615149454300007F41410000552A5576
:101E14002A55000041417F000004020102040040F1
:101E24004040404000000102040000205454547813
:101E3400007F484444380038444444200038444433
:101E4400487F00385454541800087E0901020018D1
:101E5400A4A4A47C007F080404780000447D40000E
:101E6400004080847D00007F102844000000417FF2
:101E74004000007C04180478007C080404780038CE
:101E84004444443800FC242424180018242418FC56
:101E9400007C0804040800485454542000043F44BF
:101EA4004020003C4040207C001C2040201C003C82
:101EB4004030403C004428102844001CA0A0A07CD2
:101EC400004464544C4414141414141402030405FC
:101ED400060708090A0B0C0D0E0F10100000000075
:101EE40000000000000000000102030406070809C6
:081EF4000000000001020304DC
:041EFC007501000864
:041F00004D01000887
:0C1F040001000000100000000024F400A8
:0400000508001C31A2
:00000001FF
