:020000040800F2
:10000000005000204D180008C9050008CB05000865
:10001000CD050008CF050008D1050008000000004C
:10002000000000000000000000000000D3050008F0
:10003000D505000800000000D7050008D905000814
:1000400095180008951800089518000895180008DC
:1000500095180008951800089518000895180008CC
:1000600095180008951800089518000895180008BC
:1000700095180008951800089518000895180008AC
:10008000951800089518000895180008951800089C
:10009000951800089518000895180008951800088C
:1000A000951800089518000895180008951800087C
:1000B000951800089518000895180008951800086C
:1000C000951800089518000895180008951800085C
:1000D00095180008E1050008951800089518000813
:1000E00095180008951800089518000800000000F1
:1000F0000000000000000000000000000000000000
:0C01000000000000000000005FF808F1A3
:10010C000348044B834202D0034B03B1184770479A
:10011C000C0000200C0000200000000005480649DF
:10012C000B1AD90F01EBA301491002D0034B03B1F9
:10013C00184770470C0000200C0000200000000045
:10014C0010B5064C237843B9FFF7DAFF044B13B113
:10015C000448AFF300800123237010BD0C00002075
:10016C00000000009818000808B5044B1BB10449A6
:10017C000448AFF30080BDE80840CFE70000000062
:10018C00100000209818000870B50D4E0D4D761B10
:10019C00B61006D00024013455F8043B9847A6420B
:1001AC00F9D1094E094D01F071FB761BB61006D042
:1001BC000024013455F8043B9847A642F9D170BD90
:1001CC00E8180008E8180008EC180008E8180008FF
:1001DC00F0B4860746D0541E002A3CD0CAB203465F
:1001EC0002E014F1FF3436D303F8012B9D07F8D14C
:1001FC00032C29D9CDB245EA05250F2C45EA054536
:10020C0033D9A4F11006360903F1200707EB0617C2
:10021C0003F1100242E9045542E902551032BA4288
:10022C00F8D1721C14F00C0F03EB021204F00F0641
:10023C0013D0331F23F003030433134442F8045B3D
:10024C009342FBD106F003042CB1C9B21C4403F851
:10025C00011B9C42FBD1F0BC704734461346002C6A
:10026C00F3D1F8E714460346C2E71A462646E0E700
:10027C0020F0030110F00300C0F1000051F8043B22
:10028C0000F1040C4FEACC0C6FF000021CBF22FAF8
:10029C000CF213434FF0010C4CEA0C2C4CEA0C4CB6
:1002AC00A3EB0C0222EA030212EACC1204BF51F8AF
:1002BC00043B0430F4D0C2F1000102EA0102B2FAAC
:1002CC0082F2C2F11F0200EBD2007047002A44D028
:1002DC0040EA010313F00303F0B425D1032A23D918
:1002EC0004680D68AC423AD1043A33D0A4F101351C
:1002FC0025EA040414F0803F2CD1071D0D1D0DE0E0
:10030C0057F8043B0E68A3F10134B34224EA03040A
:10031C0025D1043A1ED014F0803F1BD1032A294664
:10032C00384605F10405EBD803780D78561E9D422E
:10033C000DD17EB173B1044602E082180AD04BB1E4
:10034C0014F8013F11F8015F321BAB42F5D0581B7A
:10035C00F0BC70470020F0BC704710467047037823
:10036C000D78561E9D42E5D0F1E700BF72B6FEE750
:10037C0000B591B0002309930B930C930193029356
:10038C00039304930593012106914FF48032079255
:10039C0008930A9102230D930E924FF4E0130F93DE
:1003AC0006A800F039FD80B90F23019302210291B8
:1003BC00002303934FF480620492059301A800F08C
:1003CC0069FF20B911B05DF804FBFFF7CFFFFFF711
:1003DC00CDFF08B500F0D2FCFFF7CAFF00F00CF817
:1003EC0000F070F84FF47A7000F0ECFC00F040F87C
:1003FC000A2000F0E7FCFBE730B589B00024049438
:10040C00059406940794184B9A6942F010029A616D
:10041C009A6902F010020192019A9A6942F0200244
:10042C009A619A6902F020020292029A9A6942F049
:10043C0004029A619B6903F004030393039B0B4D25
:10044C0001224FF40051284601F010F94FF40053EB
:10045C0004930123059306940223079304A92846C9
:10046C0000F0F4FF09B030BD001002400010014054
:10047C0010B5134C00224FF40051204601F0F6F851
:10048C00642000F09FFC01224FF40051204601F043
:10049C00EDF8642000F096FC00224FF40051204649
:1004AC0001F0E4F8642000F08DFC01224FF40051BF
:1004BC00204601F0DBF8322000F084FC10BD00BFB8
:1004CC000010014008B50D480D4B03604FF4E133AB
:1004DC00436000238360C36003610C22426183612B
:1004EC00C36100F0C7F928B901220649034800F09E
:1004FC0002FC08BDFFF73AFFF6E700BF2C00002016
:10050C00003801407000002030B587B00023029302
:10051C0003930493059302681B4B9A4201D007B0D6
:10052C0030BD03F558439A6942F480429A619A6946
:10053C0002F480420092009A9A6942F004029A6195
:10054C009B6903F004030193019B4FF40073029326
:10055C0002230393032305930C4D02A9284600F0B4
:10056C0075FF4FF48063029300240394049402A952
:10057C00284600F06BFF22462146252001F006F9A3
:10058C00252001F037F9CAE7003801400008014086
:10059C0038B50546FFF76CFE84B24FF6FF73224662
:1005AC002946054800F095F9034800F083FB212803
:1005BC00FAD0204638BD00BF2C000020FEE7FEE735
:1005CC00FEE7FEE7FEE770477047704708B500F09E
:1005DC00E7FB08BD08B5024800F06AFA08BD00BF89
:1005EC002C00002010B52D4B1B78FF2B2FD02B4B44
:1005FC001A78511C19702A4B1B782A498B540A2BD8
:10060C0001D00D2B1DD1032227492648FFF75EFE92
:10061C0030B3022225492348FFF758FE50B302227B
:10062C0023492048FFF752FE70B31E4C2046FFF7BB
:10063C00AFFF0021194B19704FF480722046FFF761
:10064C00C7FD012216491B4800F055FB10BD0021C7
:10065C00124B19704FF480721248FFF7B9FDC6E7C0
:10066C0001224FF4005100F1804000F5883000F079
:10067C00FDFFCEE700224FF4005100F1804000F561
:10068C00883000F0F3FFCAE74FF4005100F18040CE
:10069C0000F5883000F0F0FFC7E700BF280000200D
:1006AC007000002074000020B0180008B418000876
:1006BC00B81800082C00002082B00A4B9A6942F04E
:1006CC0001029A619A6902F001020092009ADA69B9
:1006DC0042F08052DA61DB6903F080530193019B95
:1006EC0002B07047001002400268D36823F4907384
:1006FC00D3600268536923F001035361036B012B30
:10070C0005D0202380F83E30002303637047026835
:10071C00D36823F01003D360F3E790F83D30DBB2DD
:10072C00212B01D0022070478368B3F5805F17D06E
:10073C00036A5A1C02621A7803685A60C38C9BB213
:10074C00013B9BB2C3844BB90268D36823F080038E
:10075C00D3600268D36843F04003D3600020704735
:10076C000369002BE4D1036A1B880268C3F30803F6
:10077C005360036A02330362E0E7000010B50446DD
:10078C000268136923F44053C1680B4313618368F7
:10079C000269134342691A430168CB6823F4B053CE
:1007AC0023F00C031343CB600268536923F44073AA
:1007BC0081690B4353610268124B9A421FD000F0BF
:1007CC0025FE00EB800303EB830362689200B3FB0E
:1007DC00F2F20D48A0FB02314909642303FB1123FB
:1007EC001B013233A0FB03235B0903F0F00202EB85
:1007FC00011203F00F03216813448B6010BD00F04D
:10080C0015FEDEE7003801401F85EB512DE9F8435A
:10081C0005460F4616469946DDF820802C6824685C
:10082C0037EA04030CBF01240024B4421FD1B8F1F1
:10083C00FF3FF3D0B8F1000F05D000F0BDFAA0EBEC
:10084C0009004045EAD92A68D36823F4D073D360F1
:10085C002A68536923F001035361202385F83D3046
:10086C0085F83E30002385F83C30032000E0002062
:10087C00BDE8F88358B310B5044690F83D300BB37F
:10088C00242384F83D302268D36823F40053D360CA
:10089C002046FFF773FF2268136923F4904313611A
:1008AC002268536923F02A0353612268D36843F406
:1008BC000053D36000202064202384F83D3084F85A
:1008CC003E3010BD80F83C30FFF71EFED8E701200B
:1008DC0070472DE9F04182B01E4690F83D30DBB2F6
:1008EC00202B54D104460D469046002953D0002AA3
:1008FC0053D090F83C30012B51D0012380F83C3080
:10090C0000230364212380F83D3000F055FA07469C
:10091C00A4F82480A4F82680A368B3F5805F05D0E2
:10092C004FF00008002384F83C3012E0236913B127
:10093C004FF00008F6E7A8460025F3E738F8023B2D
:10094C002268C3F308035360E28C92B2013A92B26C
:10095C00E284E38C9BB273B100963B46002280216B
:10096C002046FFF753FFE0B9002DE7D015F8012B17
:10097C0023685A60E8E700963B4600224021204657
:10098C00FFF744FF78B9202384F83D3000E00220C3
:10099C0002B0BDE8F0810120FAE70120F8E702205F
:1009AC00F6E70320F4E70320F2E7704708B5016887
:1009BC00CA6822F04002CA60202280F83D20FFF76E
:1009CC00F4FF002008BD704708B5406A0023C385BA
:1009DC00C384FFF7F8FF08BD704790F83E30DBB2D8
:1009EC00222B60D18368B3F5805F46D0826AB3F561
:1009FC00805F04D0002B4DD10369002B4AD10368D2
:100A0C005B681370836A01338362C38D9BB2013BB5
:100A1C009BB2C385002B48D100B583B00268D36864
:100A2C0023F02003D3600268D36823F48073D3606F
:100A3C000268536923F001035361202380F83E3090
:100A4C00036B012B2CD1002303630268D36823F0C2
:100A5C001003D36003681A6812F0100F06D000223E
:100A6C0001921A6801925B680193019B818DFFF7DB
:100A7C00B3FF002003B05DF804FB0269002AB5D176
:100A8C00826A03685B68C3F308031380836A0233CA
:100A9C008362BAE703685B6803F07F031370B1E706
:100AAC00FFF7A0FDE5E7022070470020704700002B
:100ABC0030B583B0044602681368D068516913F0EE
:100ACC000F0505D113F0200F02D010F0200F19D113
:100ADC002DB111F0010119D110F4907F16D1216BB9
:100AEC00012975D013F0800F03D010F0800F40F067
:100AFC00D78013F0400F03D010F0400F40F0D4809B
:100B0C0003B030BD2046FFF768FFF9E713F0010F83
:100B1C0006D010F4807F03D0226C42F001022264D4
:100B2C0013F0040F04D019B1226C42F002022264BB
:100B3C0013F0020F04D019B1226C42F004022264AB
:100B4C0013F0080F07D010F0200F00D119B1226C50
:100B5C0042F008022264226C002AD1D013F0200F3C
:100B6C0002D010F0200F21D123685B6903F0400301
:100B7C00226C12F0080F00D123B32046FFF7B4FD0E
:100B8C0023685A6912F0400F18D05A6922F04002BB
:100B9C005A61A36B73B1464A5A63A06B00F098FD7F
:100BAC000028ADD0A06B436B9847A9E72046FFF710
:100BBC0014FFD9E72046FFF706FFA1E72046FFF711
:100BCC0002FF9DE72046FFF7FEFE0023236497E714
:100BDC0013F0100F86D010F0100F83D00023019368
:100BEC001368019353680193019B536913F0400FF1
:100BFC0032D0A16B0B685B689BB2002B80D0A08DB0
:100C0C0098427FF67DAFE3858B69202B08D1A18DAF
:100C1C00E38D9BB2C91A89B22046FFF7DDFE6FE760
:100C2C00D36823F48073D3602268536923F00103E3
:100C3C0053612268536923F040035361202384F8E5
:100C4C003E30002323632268D36823F01003D36063
:100C5C00A06B00F01AFDDAE7A18DE38D9BB2C91AE7
:100C6C0089B2E38D9BB2002B3FF44AAF00293FF4CD
:100C7C0047AFD36823F49073D3602268536923F091
:100C8C0001035361202384F83E3000232363226840
:100C9C00D36823F01003D3602046FFF79DFE2FE7A7
:100CAC002046FFF73AFD2BE72046FFF77FFE27E7AC
:100CBC00D509000890F83D3090F83E001843704775
:100CCC00034681628285C28500201864222283F843
:100CDC003E2083F83C001968CA6842F48072CA60EE
:100CEC0019684A6942F001024A611A68D36843F0F4
:100CFC002003D360704708B590F83E30DBB2202B50
:100D0C000DD171B17AB190F83C30012B0DD001238B
:100D1C0080F83C3000230363FFF7D2FF00E0022091
:100D2C0008BD0120FCE70120FAE70220F8E70000EB
:100D3C0010B504460E4B18784FF47A73B3FBF0F3EE
:100D4C000C4A1068B0FBF3F000F062FD68B90F2C90
:100D5C0001D901200AE0002221464FF0FF3000F0BB
:100D6C0015FD054B1C60002000E0012010BD00BFEC
:100D7C0000000020080000200400002008B5074AED
:100D8C00136843F010031360032000F0EDFC0F20F8
:100D9C00FFF7CEFFFFF790FC002008BD00200240BB
:100DAC00034A1168034B1B780B441360704700BF58
:100DBC007402002000000020014B1868704700BF2F
:100DCC007402002038B50446FFF7F6FF0546B4F16F
:100DDC00FF3F02D0044B1B781C44FFF7EDFF401B78
:100DEC00A042FAD338BD00BF0000002082B0084BEF
:100DFC001B68084AA2FB03235B0A00FB03F3019365
:100E0C0000BF019B5A1E0192002BF9D102B0704712
:100E1C0008000020D34D6210002800F0F18170B55D
:100E2C0082B00446036813F0010F2CD0AA4B5B6808
:100E3C0003F00C03042B1DD0A74B5B6803F00C03D1
:100E4C00082B12D06368B3F5803F41D0002B55D1ED
:100E5C0003F1804303F504331A6822F480321A60DC
:100E6C001A6822F480221A6037E09B4B5B6813F4FB
:100E7C00803FE7D0984B1B6813F4003F03D06368A6
:100E8C00002B00F0BF81236813F0020F75D0924B3A
:100E9C005B6813F00C0F5FD08F4B5B6803F00C0397
:100EAC00082B54D02369002B00F089808B4B012236
:100EBC001A60FFF781FF0546874B1B6813F0020F82
:100ECC0074D1FFF779FF401B0228F5D903209EE16E
:100EDC00814A136843F480331360636843B3FFF7AC
:100EEC006BFF05467C4B1B6813F4003FCBD1FFF71F
:100EFC0063FF401B6428F5D9032088E1B3F5A02FCC
:100F0C0009D0754B1A6822F480321A601A6822F4E0
:100F1C0080221A60E1E703F18043A3F53C331A68A1
:100F2C0042F480221A601A6842F480321A60D4E7C4
:100F3C00FFF742FF0546684B1B6813F4003FA2D035
:100F4C00FFF73AFF401B6428F5D903205FE1624BA1
:100F5C005B6813F4803FA5D15F4B1B6813F0020F45
:100F6C0003D02369012B40F04F815B4A136823F0B7
:100F7C00F803616943EAC1031360236813F0080F97
:100F8C0032D0A369002B45D0554B01221A60FFF7D4
:100F9C0013FF0546504B5B6A13F0020F21D1FFF78C
:100FAC000BFF401B0228F5D9032030E14A4A136895
:100FBC0023F0F803616943EAC1031360DDE7474B93
:100FCC0000221A60FFF7F8FE0546434B1B6813F02E
:100FDC00020FD2D0FFF7F0FE401B0228F5D90320F8
:100FEC0015E10120FFF702FF236813F0040F00F056
:100FFC009780394BDB6913F0805F1DD1364BDA6972
:10100C0042F08052DA61DB6903F080530193019B5B
:10101C00012512E0324B00221A60FFF7CDFE054687
:10102C002D4B5B6A13F0020FDED0FFF7C5FE401BA1
:10103C000228F5D90320EAE000252A4B1B6813F49B
:10104C00807F11D0E368012B22D0002B38D103F123
:10105C00804303F504331A6A22F001021A621A6AF9
:10106C0022F004021A6218E01E4A136843F48073DB
:10107C001360FFF7A1FE06461A4B1B6813F4807F22
:10108C00E0D1FFF799FE801B6428F5D90320BEE060
:10109C00114A136A43F001031362E36873B3FFF759
:1010AC008BFE06460C4B1B6A13F0020F37D1FFF771
:1010BC0083FE801B41F288339842F3D90320A6E0CB
:1010CC00052B11D0044B1A6A22F001021A621A6A1B
:1010DC0022F004021A62E0E70010024000004242D3
:1010EC0080044242007000404D4B1A6A42F00402E8
:1010FC001A621A6A42F001021A62CEE7FFF75CFE2E
:10110C000646474B1B6A13F0020F08D0FFF754FE3C
:10111C00801B41F288339842F3D9032077E0E5B97C
:10112C00E369002B72D03E4A526802F00C02082A86
:10113C0056D0022B17D03B4B00221A60FFF73CFE17
:10114C000446374B1B6813F0007F47D0FFF734FE83
:10115C00001B0228F5D9032059E0314AD36923F04A
:10116C008053D361DCE72F4B00221A60FFF724FE7B
:10117C0005462B4B1B6813F0007F06D0FFF71CFEB7
:10118C00401B0228F5D9032041E0236AB3F5803FC8
:10119C001AD023494B6823F47413226A606A024301
:1011AC0013434B601F4B01221A60FFF705FE0446E8
:1011BC001B4B1B6813F0007F0ED1FFF7FDFD001BCE
:1011CC000228F5D9032022E0154A536823F4003392
:1011DC00A1680B435360DCE7002018E0002016E008
:1011EC00012B16D00E4B5B6803F48031226A9142BE
:1011FC0011D103F47013626A93420ED1002006E001
:10120C0001207047012002E0012000E0002002B024
:10121C0070BD0120FBE70120F9E70120F7E700BFD3
:10122C00001002406000424286B0164B0FCB0DF10D
:10123C00180C0CE90F0040F20123ADF80430124BEE
:10124C005B6803F00C02082A02D0104806B0704705
:10125C00C3F38342624412F8102C13F4803F0CD079
:10126C00094B5B68C3F34043634413F8143C0748D1
:10127C0000FB02F0B0FBF3F0E8E7054800FB02F0DE
:10128C00E4E700BFBC1800080010024000127A000E
:10129C0000093D00002800F0A08070B50D46044602
:1012AC00524B1B6803F007038B420BD24F4A136857
:1012BC0023F007030B431360136803F007038B42FF
:1012CC0040F08D80236813F0020F17D013F0040F39
:1012DC0004D0474A536843F4E0635360236813F027
:1012EC00080F04D0424A536843F460535360404A99
:1012FC00536823F0F003A1680B435360236813F089
:10130C00010F31D06368012B20D0022B25D0384A35
:10131C00126812F0020F64D035494A6822F00302B9
:10132C0013434B60FFF748FD0646314B5B6803F0F7
:10133C000C036268B3EB820F16D0FFF73DFD801BE8
:10134C0041F288339842F0D9032045E0284A1268CC
:10135C0012F4003FE0D101203EE0254A126812F061
:10136C00007FD9D1012037E0204B1B6803F0070325
:10137C00AB420AD91D4A136823F007032B431360B1
:10138C00136803F00703AB422DD1236813F0040F4D
:10139C0006D0174A536823F4E063E1680B435360AB
:1013AC00236813F0080F07D0114A536823F46053D5
:1013BC00216943EAC1035360FFF736FF0C4B5B68AE
:1013CC00C3F303130B4AD35CD8400B4B18600B4B85
:1013DC001868FFF7ADFC002070BD0120704701209C
:1013EC00FAE70120F8E70120F6E700BF00200240F1
:1013FC0000100240D0180008080000200400002053
:10140C00014B1868704700BF0800002008B5FFF7B3
:10141C00F7FF044B5B68C3F30223034AD35CD84049
:10142C0008BD00BF00100240E018000808B5FFF727
:10143C00E7FF044B5B68C3F3C223034AD35CD84079
:10144C0008BD00BF00100240E0180008F0B482B0E4
:10145C0000252C46A3E07F4FBB4210D007D97E4F0E
:10146C00BB420CD007F58037BB4208D013E0A7F580
:10147C008017BB4203D007F57027BB4207D18B689E
:10148C00002B58D0012B51D04261082503E0A7F561
:10149C008017BB42F3D0FF2E4FD88446FF2E4FD877
:1014AC00A200DCF800300F27974023EA070305FA67
:1014BC0002F21343CCF800304B6813F0805F6DD010
:1014CC00664B9A6942F001029A619B6903F0010331
:1014DC000193019BA208971C614B53F8273004F031
:1014EC000307BF004FF00F0C0CFA07FC23EA0C0C9F
:1014FC005C4B98422AD003F58063984200F08A80B6
:10150C0003F58063984200F0878003F5806398426E
:10151C001AD004231BE0CD68BDE7CD680435BAE7CB
:10152C00CD680835B7E7CD680C35B4E702610825FE
:10153C00B1E70025AFE70425ADE700F1040CADE7FA
:10154C00A4F108029200ACE7032300E00023BB40A7
:10155C0043EA0C030232424F47F822304B6813F433
:10156C00803F5BD0404A1368334313604B6813F4DD
:10157C00003F59D03C4A5368334353604B6813F4D3
:10158C00801F57D0384A9368334393604B6813F4E9
:10159C00001F55D0344AD3681E43D66001340B6803
:1015AC0033FA04F252D00122A24003EA020632EAD4
:1015BC000303F3D14B68122B3FF64DAF122B3FF6C2
:1015CC006AAF01A757F823F08B1400082315000805
:1015DC002D1500083F150008A3140008A3140008DB
:1015EC00A3140008A3140008A3140008A3140008F3
:1015FC00A3140008A3140008A3140008A3140008E3
:10160C00A3140008A3140008A3140008271500084D
:10161C003315000801239AE7022398E7124A13684E
:10162C0023EA06031360A1E70F4A536823EA060373
:10163C005360A3E70C4A936823EA06039360A5E77B
:10164C00094AD36823EA0606D660A7E702B0F0BCC5
:10165C00704700BF00002210000031100010024043
:10166C000000014000080140000401400AB1016182
:10167C007047090401617047C36801EA030221EA5B
:10168C00030141EA02410161704790F82130022BBD
:10169C0006D004238363002380F820300120704798
:1016AC000268136823F00E0313600268136823F0BA
:1016BC0001031360036CC16B012202FA03F34B604C
:1016CC0080F82120002380F8203018467047000055
:1016DC0008B590F82130022B03D00423836301203A
:1016EC0008BD0268136823F00E03136002681368C8
:1016FC0023F0010313600368194A934214D0143287
:10170C0093421FD0143293421ED0143293421ED0F7
:10171C00143293421ED01432934202D04FF0807296
:10172C0003E04FF4801200E001220E4B5A600123BB
:10173C0080F82130002380F82030436B6BB1984740
:10174C000020CDE71022F0E74FF48072EDE74FF464
:10175C008052EAE74FF48032E7E70020C0E700BF91
:10176C000800024000000240074AD36823F4E063FB
:10177C001B041B0C000200F4E060034343F0BF6346
:10178C0043F40033D360704700ED00E030B4174BE6
:10179C00DB68C3F30223C3F10704042C28BF042421
:1017AC001D1D062D18D9033B4FF0FF3505FA04F427
:1017BC0021EA0401994005FA03F322EA03031943D1
:1017CC0000280BDB0901C9B200F1604000F5614053
:1017DC0080F8001330BC70470023E5E700F00F00E1
:1017EC000901C9B2024B1954F4E700BF00ED00E047
:1017FC0014ED00E0002807DB00F01F024009012374
:10180C009340024A42F82030704700BF00E100E0EC
:10181C000138B0F1807F0AD2064B5860064AF0219D
:10182C0082F823100020986007221A60704701206C
:10183C00704700BF10E000E000ED00E070470000D2
:10184C000C480D490D4A002302E0D458C45004330F
:10185C00C4188C42F9D30A4A0A4C002301E01360E5
:10186C000432A242FBD3FFF7E9FFFEF78DFCFEF733
:10187C00B0FD7047000000200C000020F01800089C
:10188C000C00002078020020FEE70000F8B500BF35
:10189C00F8BC08BC9E467047F8B500BFF8BC08BC45
:0418AC009E4670479D
:1018B0004F4646004F4E00004F4B00000203040508
:1018C000060708090A0B0C0D0E0F1010000000008F
:1018D00000000000000000000102030406070809E0
:0818E0000000000001020304F6
:0418E800750100087E
:0418EC004D010008A2
:0C18F00001000000100000000024F400C3
:040000050800184D8A
:00000001FF
