:020000040800F2
:1000000000500020ED130008690300086B0300088E
:100010006D0300086F030008710300080000000072
:100020000000000000000000000000007303000852
:10003000750300080000000077030008790300083A
:10004000351400083514000835140008351400086C
:10005000351400083514000835140008351400085C
:10006000351400083514000835140008351400084C
:10007000351400083514000835140008351400083C
:10008000351400083514000835140008351400082C
:10009000351400083514000835140008351400081C
:1000A000351400083514000835140008351400080C
:1000B00035140008351400083514000835140008FC
:1000C00035140008351400083514000835140008EC
:1000D00035140008351400083514000835140008DC
:1000E000351400083514000835140008000000001D
:1000F0000000000000000000000000000000000000
:0C01000000000000000000005FF808F1A3
:10010C000348044B834202D0034B03B1184770479A
:10011C000C0000200C0000200000000005480649DF
:10012C000B1AD90F01EBA301491002D0034B03B1F9
:10013C00184770470C0000200C0000200000000045
:10014C0010B5064C237843B9FFF7DAFF044B13B113
:10015C000448AFF300800123237010BD0C00002075
:10016C00000000003814000808B5044B1BB104490A
:10017C000448AFF30080BDE80840CFE70000000062
:10018C00100000203814000870B50D4E0D4D761B74
:10019C00B61006D00024013455F8043B9847A6420B
:1001AC00F9D1094E094D01F041F9761BB61006D074
:1001BC000024013455F8043B9847A642F9D170BD90
:1001CC0074140008741400087814000874140008DF
:1001DC0082B00A4B9A6942F020029A619A6902F045
:1001EC0020020092009A9A6942F008029A619B6977
:1001FC0003F008030193019B02B07047001002400A
:10020C0072B6FEE700B58FB000230A930B930C93E4
:10021C000D9308930993019302930393049305930D
:10022C00069307931E481F4A026047224260836070
:10023C0040F2F312C26003618023836100F0DCF9A9
:10024C0020BB4FF480530A930AA9154800F0D1FA49
:10025C00F0B9134800F0FCF9E0B9002308930993B6
:10026C0008A90F4800F0B2FBB0B96023019300223B
:10027C0002920392059201A9094800F047FA68B965
:10028C00074800F0A5F80FB05DF804FBFFF7B8FFC6
:10029C00FFF7B6FFFFF7B4FFFFF7B2FFFFF7B0FFB2
:1002AC00280000200008004000B591B000230993FD
:1002BC000B930C93019302930393049305930121E5
:1002CC0006914FF48032079208930A9102230D9302
:1002DC000E924FF4E0130F9306A800F01FFC80B9A8
:1002EC000F23019302210291002303934FF48062A8
:1002FC000492059301A800F04FFE20B911B05DF8EF
:10030C0004FBFFF77DFFFFF77BFF000010B500F04B
:10031C00B7FBFFF7C9FFFFF75BFFFFF773FF002188
:10032C000D4800F0E5FA15E00B4B1B685C630120EF
:10033C0000F0CAFB0134B4F5FA7FF5DB4FF4FA7424
:10034C0006E0054B1B685C63C82000F0BDFB643CF9
:10035C00002CF6DA0024EEE728000020FEE7FEE78A
:10036C00FEE7FEE7FEE770477047704708B500F000
:10037C0099FB08BD82B00A4B9A6942F001029A615E
:10038C009A6902F001020092009ADA6942F08052F6
:10039C00DA61DB6903F080530193019B02B0704773
:1003AC00001002400268094B9A4200D0704782B09C
:1003BC0003F50233DA6942F00402DA61DB6903F017
:1003CC0004030193019B02B0704700BF000800407A
:1003DC0000B587B00023029303930493059302683E
:1003EC000D4B9A4202D007B05DF804FB03F50233C3
:1003FC009A6942F008029A619B6903F00803019321
:10040C00019B40230293022303930323059302A928
:10041C00024800F077FEE6E700080040000C0140BF
:10042C0070B4036A23F001030362036A46688269AD
:10043C0022F073020C6844EA020523F002028B6876
:10044C0013430D4CA04209D00B4CA0420DD046607A
:10045C0085614A684263036270BC704723F00803ED
:10046C00CA68134323F00403EEE726F440764A6986
:10047C0032438E691643EAE7002C014030B4036A1C
:10048C0023F480730362036A4568C26922F0730225
:10049C000C68224323F400738C6843EA04230F4C4A
:1004AC00A04209D00D4CA0420ED04560C2614A68F2
:1004BC00C263036230BC704723F40063CC6843EA28
:1004CC00042323F48063EDE725F440554C6945EA99
:1004DC0004158C6945EA0415E7E700BF002C0140C0
:1004EC0030B4036A23F480530362036A4468C2691C
:1004FC0022F4E6420D6842EA052223F400538D688B
:10050C0043EA0533074DA84206D04460C2614A68ED
:10051C000264036230BC704724F480444D6944EAA1
:10052C008514F2E7002C014030B4036A056A25F00B
:10053C0001050562846924F0F00444EA021423F0F6
:10054C000A030B438461036230BC704730B4056A04
:10055C0025F0100505628469036A24F4704444EAAA
:10056C00023423F0A00343EA01138461036230BC1C
:10057C007047836823F070030B4343F007038360D9
:10058C007047704703681B4A90420AD0B0F1804F05
:10059C0007D0A2F59432904203D002F580629042CB
:1005AC0003D123F070034A681343124A90420AD0D5
:1005BC00B0F1804F07D0A2F59432904203D002F5EF
:1005CC008062904203D123F44073CA68134323F032
:1005DC0080034A69134303608B68C3620B688362B0
:1005EC00044B984202D00123436170470B690363AB
:1005FC00F9E700BF002C014040B310B5044690F859
:10060C003D30F3B1022384F83D30214651F8040B00
:10061C00FFF7B8FF012384F8463084F83E3084F8A5
:10062C003F3084F8403084F8413084F8423084F80C
:10063C00433084F8443084F8453084F83D30002051
:10064C0010BD80F83C30FFF7ADFEDBE701207047B2
:10065C0040B310B5044690F83D30F3B1022384F852
:10066C003D30214651F8040BFFF78CFF012384F831
:10067C00463084F83E3084F83F3084F8403084F8BB
:10068C00413084F8423084F8433084F8443084F8A4
:10069C00453084F83D30002010BD80F83C30FFF729
:1006AC0070FFDBE70120704730B4036A23F01003BE
:1006BC000362036A4468826922F4E6420D6842EAE6
:1006CC00052223F020038D6843EA05130E4DA84242
:1006DC0009D00D4DA8420ED0446082614A688263F5
:1006EC00036230BC704723F08003CD6843EA0513E6
:1006FC0023F04003EDE724F440644D6944EA85049B
:10070C008D6944EA8504E7E7002C014038B590F880
:10071C003C30012B60D004460D46012380F83C3060
:10072C000C2A1AD8DFE802F0071919191D19191922
:10073C003119191944000068FFF772FE2268936999
:10074C0043F0080393612268936923F004039361D7
:10075C002268936929690B439361002084F83C005B
:10076C0038BD0068FFF7A0FF2268936943F400636B
:10077C0093612268936923F480639361226893697F
:10078C00296943EA01239361E7E70068FFF776FEE6
:10079C002268D36943F00803D3612268D36923F03C
:1007AC000403D3612268D36929690B43D361D4E76D
:1007BC000068FFF795FE2268D36943F40063D361A8
:1007CC002268D36923F48063D3612268D3692969D1
:1007DC0043EA0123D361C0E70220C1E710B4846867
:1007EC0024F47F4442EA03220A432243826010BC71
:1007FC00704790F83C30012B66D010B504460123AD
:10080C0080F83C30022380F83D300268936823F472
:10081C007F4323F0770393600B68602B40D022D882
:10082C00402B47D00BD9502B0ED1CA6849680068B1
:10083C00FFF77AFE50212068FFF79BFE04E0202B87
:10084C000CD008D9302B09D0012384F83D3000207E
:10085C0084F83C0010BD0BB1102BF5D11946206863
:10086C00FFF787FEF0E7702B0ED0B3F5005FEBD1EE
:10087C00CB684A6889680068FFF7B0FF2268936804
:10088C0043F480439360DFE7CB684A68896800686B
:10089C00FFF7A4FF2268936843F077039360D3E7D4
:1008AC00CA6849680068FFF751FE60212068FFF7AD
:1008BC0060FEC9E7CA6849680068FFF735FE402149
:1008CC002068FFF756FEBFE70220704710B401F016
:1008DC001F01012303FA01F4036A23EA04030362F0
:1008EC00036A02FA01F10B43036210BC704700006B
:1008FC0010B50446084651BB94F83E30DBB2013BC0
:10090C0018BF0123002B5BD1002839D1022384F8B6
:10091C003E30012201462068FFF7D8FF23682A4A9F
:10092C0093423DD02368284A93423ED0B3F1804F86
:10093C003BD0A2F59432934237D002F580629342B9
:10094C0033D01A6842F001021A60002039E0042901
:10095C0008D008290DD094F84130DBB2013B18BF08
:10096C000123CFE794F83F30DBB2013B18BF0123E2
:10097C00C8E794F84030DBB2013B18BF0123C1E754
:10098C00042805D0082807D0022384F84130C0E79A
:10099C00022384F83F30BCE7022384F84030B8E7E8
:1009AC005A6C42F400425A64BCE79A6802F007029F
:1009BC00062A07D01A6842F001021A60002000E0F3
:1009CC00012010BD0020FCE7002C014090F83C30C9
:1009DC00012B2BD030B4012380F83C30022380F85B
:1009EC003D3003685C689D6824F070040A682243FB
:1009FC005A6003680E4A93420AD0B3F1804F07D075
:100A0C00A2F59432934203D002F58062934204D152
:100A1C0025F080054A6815439D60012380F83D3020
:100A2C00002380F83C30184630BC704702207047D9
:100A3C00002C014010B504460E4B18784FF47A7315
:100A4C00B3FBF0F30C4A1068B0FBF3F000F0B0FC11
:100A5C0068B90F2C01D901200AE0002221464FF081
:100A6C00FF3000F071FC054B1C60002000E0012001
:100A7C0010BD00BF00000020080000200400002072
:100A8C0008B5074A136843F010031360032000F005
:100A9C0049FC0F20FFF7CEFFFFF76CFC002008BDD0
:100AAC0000200240034A1168034B1B780B4413606F
:100ABC00704700BF7000002000000020014B186838
:100ACC00704700BF7000002038B50446FFF7F6FFF2
:100ADC000546B4F1FF3F02D0044B1B781C44FFF7D2
:100AEC00EDFF401BA042FAD338BD00BF0000002030
:100AFC0082B0084B1B68084AA2FB03235B0A00FB6D
:100B0C0003F3019300BF019B5A1E0192002BF9D1F4
:100B1C0002B0704708000020D34D6210002800F08E
:100B2C00F18170B582B00446036813F0010F2CD02C
:100B3C00AA4B5B6803F00C03042B1DD0A74B5B681E
:100B4C0003F00C03082B12D06368B3F5803F41D03F
:100B5C00002B55D103F1804303F504331A6822F4BA
:100B6C0080321A601A6822F480221A6037E09B4B9C
:100B7C005B6813F4803FE7D0984B1B6813F4003F7D
:100B8C0003D06368002B00F0BF81236813F0020FC1
:100B9C0075D0924B5B6813F00C0F5FD08F4B5B687A
:100BAC0003F00C03082B54D02369002B00F0898030
:100BBC008B4B01221A60FFF781FF0546874B1B68A0
:100BCC0013F0020F74D1FFF779FF401B0228F5D9FF
:100BDC0003209EE1814A136843F4803313606368F9
:100BEC0043B3FFF76BFF05467C4B1B6813F4003FC8
:100BFC00CBD1FFF763FF401B6428F5D9032088E1B4
:100C0C00B3F5A02F09D0754B1A6822F480321A6004
:100C1C001A6822F480221A60E1E703F18043A3F5FD
:100C2C003C331A6842F480221A601A6842F480320B
:100C3C001A60D4E7FFF742FF0546684B1B6813F4B4
:100C4C00003FA2D0FFF73AFF401B6428F5D90320E0
:100C5C005FE1624B5B6813F4803FA5D15F4B1B686F
:100C6C0013F0020F03D02369012B40F04F815B4A34
:100C7C00136823F0F803616943EAC1031360236826
:100C8C0013F0080F32D0A369002B45D0554B01222D
:100C9C001A60FFF713FF0546504B5B6A13F0020F07
:100CAC0021D1FFF70BFF401B0228F5D9032030E1BF
:100CBC004A4A136823F0F803616943EAC1031360DD
:100CCC00DDE7474B00221A60FFF7F8FE0546434B61
:100CDC001B6813F0020FD2D0FFF7F0FE401B022866
:100CEC00F5D9032015E10120FFF702FF236813F06B
:100CFC00040F00F09780394BDB6913F0805F1DD136
:100D0C00364BDA6942F08052DA61DB6903F08053CA
:100D1C000193019B012512E0324B00221A60FFF770
:100D2C00CDFE05462D4B5B6A13F0020FDED0FFF7AC
:100D3C00C5FE401B0228F5D90320EAE000252A4B0A
:100D4C001B6813F4807F11D0E368012B22D0002B99
:100D5C0038D103F1804303F504331A6A22F00102FF
:100D6C001A621A6A22F004021A6218E01E4A136808
:100D7C0043F480731360FFF7A1FE06461A4B1B6801
:100D8C0013F4807FE0D1FFF799FE801B6428F5D91E
:100D9C000320BEE0114A136A43F001031362E368B7
:100DAC0073B3FFF78BFE06460C4B1B6A13F0020F56
:100DBC0037D1FFF783FE801B41F288339842F3D979
:100DCC000320A6E0052B11D0044B1A6A22F0010275
:100DDC001A621A6A22F004021A62E0E7001002405A
:100DEC000000424280044242007000404D4B1A6A9F
:100DFC0042F004021A621A6A42F001021A62CEE749
:100E0C00FFF75CFE0646474B1B6A13F0020F08D037
:100E1C00FFF754FE801B41F288339842F3D903202C
:100E2C0077E0E5B9E369002B72D03E4A526802F0D4
:100E3C000C02082A56D0022B17D03B4B00221A600A
:100E4C00FFF73CFE0446374B1B6813F0007F47D07E
:100E5C00FFF734FE001B0228F5D9032059E0314A74
:100E6C00D36923F08053D361DCE72F4B00221A6047
:100E7C00FFF724FE05462B4B1B6813F0007F06D0B2
:100E8C00FFF71CFE401B0228F5D9032041E0236A22
:100E9C00B3F5803F1AD023494B6823F47413226AAC
:100EAC00606A024313434B601F4B01221A60FFF729
:100EBC0005FE04461B4B1B6813F0007F0ED1FFF799
:100ECC00FDFD001B0228F5D9032022E0154A5368CA
:100EDC0023F40033A1680B435360DCE7002018E0D7
:100EEC00002016E0012B16D00E4B5B6803F480310A
:100EFC00226A914211D103F47013626A93420ED1AB
:100F0C00002006E001207047012002E0012000E0F3
:100F1C00002002B070BD0120FBE70120F9E70120A1
:100F2C00F7E700BF001002406000424286B0164B4B
:100F3C000FCB0DF1180C0CE90F0040F20123ADF8AA
:100F4C000430124B5B6803F00C02082A02D01048E4
:100F5C0006B07047C3F38342624412F8102C13F4AA
:100F6C00803F0CD0094B5B68C3F34043634413F8D8
:100F7C00143C074800FB02F0B0FBF3F0E8E705482F
:100F8C0000FB02F0E4E700BF501400080010024020
:100F9C0000127A0000093D00002800F0A08070B516
:100FAC000D460446524B1B6803F007038B420BD2D1
:100FBC004F4A136823F007030B431360136803F0C5
:100FCC0007038B4240F08D80236813F0020F17D07B
:100FDC0013F0040F04D0474A536843F4E0635360A2
:100FEC00236813F0080F04D0424A536843F460534B
:100FFC005360404A536823F0F003A1680B435360DD
:10100C00236813F0010F31D06368012B20D0022B21
:10101C0025D0384A126812F0020F64D035494A685C
:10102C0022F0030213434B60FFF748FD0646314B99
:10103C005B6803F00C036268B3EB820F16D0FFF70A
:10104C003DFD801B41F288339842F0D9032045E0E6
:10105C00284A126812F4003FE0D101203EE0254AF4
:10106C00126812F0007FD9D1012037E0204B1B68A9
:10107C0003F00703AB420AD91D4A136823F0070398
:10108C002B431360136803F00703AB422DD1236885
:10109C0013F0040F06D0174A536823F4E063E16899
:1010AC000B435360236813F0080F07D0114A5368A1
:1010BC0023F46053216943EAC1035360FFF736FF01
:1010CC000C4B5B68C3F303130B4AD35CD8400B4B3C
:1010DC0018600B4B1868FFF7ADFC002070BD0120A9
:1010EC0070470120FAE70120F8E70120F6E700BF7E
:1010FC000020024000100240641400080800002088
:10110C0004000020F0B482B000252C46A3E07F4FF1
:10111C00BB4210D007D97E4FBB420CD007F58037AD
:10112C00BB4208D013E0A7F58017BB4203D007F5EC
:10113C007027BB4207D18B68002B58D0012B51D0A4
:10114C004261082503E0A7F58017BB42F3D0FF2EC0
:10115C004FD88446FF2E4FD8A200DCF800300F2762
:10116C00974023EA070305FA02F21343CCF8003048
:10117C004B6813F0805F6DD0664B9A6942F00102A8
:10118C009A619B6903F001030193019BA208971CD0
:10119C00614B53F8273004F00307BF004FF00F0CDE
:1011AC000CFA07FC23EA0C0C5C4B98422AD003F592
:1011BC008063984200F08A8003F58063984200F0C7
:1011CC00878003F5806398421AD004231BE0CD6816
:1011DC00BDE7CD680435BAE7CD680835B7E7CD680B
:1011EC000C35B4E702610825B1E70025AFE704250B
:1011FC00ADE700F1040CADE7A4F108029200ACE7F6
:10120C00032300E00023BB4043EA0C030232424FAD
:10121C0047F822304B6813F4803F5BD0404A136888
:10122C00334313604B6813F4003F59D03C4A536866
:10123C00334353604B6813F4801F57D0384A93687C
:10124C00334393604B6813F4001F55D0344AD36872
:10125C001E43D66001340B6833FA04F252D00122DB
:10126C00A24003EA020632EA0303F3D14B68122BC5
:10127C003FF64DAF122B3FF66AAF01A757F823F09C
:10128C0043110008DB110008E5110008F7110008F4
:10129C005B1100085B1100085B1100085B11000872
:1012AC005B1100085B1100085B1100085B11000862
:1012BC005B1100085B1100085B1100085B11000852
:1012CC005B110008DF110008EB11000801239AE7FD
:1012DC00022398E7124A136823EA06031360A1E776
:1012EC000F4A536823EA06035360A3E70C4A93683A
:1012FC0023EA06039360A5E7094AD36823EA0606A6
:10130C00D660A7E702B0F0BC704700BF0000221007
:10131C0000003110001002400000014000080140A4
:10132C0000040140074AD36823F4E0631B041B0C40
:10133C00000200F4E060034343F0BF6343F4003366
:10134C00D360704700ED00E030B4174BDB68C3F39B
:10135C000223C3F10704042C28BF04241D1D062DF1
:10136C0018D9033B4FF0FF3505FA04F421EA0401C8
:10137C00994005FA03F322EA0303194300280BDB17
:10138C000901C9B200F1604000F5614080F800131A
:10139C0030BC70470023E5E700F00F000901C9B22B
:1013AC00024B1954F4E700BF00ED00E014ED00E02F
:1013BC000138B0F1807F0AD2064B5860064AF02102
:1013CC0082F823100020986007221A6070470120D1
:1013DC00704700BF10E000E000ED00E07047000037
:1013EC000C480D490D4A002302E0D458C450043374
:1013FC00C4188C42F9D30A4A0A4C002301E013604A
:10140C000432A242FBD3FFF7E9FFFEF7BDFEFEF765
:10141C007DFF7047000000200C0000207C140008A9
:10142C000C00002074000020FEE70000F8B500BF9F
:10143C00F8BC08BC9E467047F8B500BFF8BC08BCA9
:04144C009E46704701
:1014500002030405060708090A0B0C0D0E0F1010F5
:101460000000000000000000000000000102030472
:04147000060708095A
:0414740075010008F6
:041478004D0100081A
:0C147C0001000000100000000024F4003B
:04000005080013EDEF
:00000001FF
